{
  "_format": "hh-sol-artifact-1",
  "contractName": "Insurance",
  "sourceName": "contracts/Insurance.sol",
  "abi": [
    {
      "stateMutability": "payable",
      "type": "fallback"
    },
    {
      "inputs": [
        {
          "internalType": "uint256",
          "name": "amount",
          "type": "uint256"
        }
      ],
      "name": "calculatePremium",
      "outputs": [
        {
          "internalType": "uint256",
          "name": "",
          "type": "uint256"
        }
      ],
      "stateMutability": "pure",
      "type": "function"
    },
    {
      "inputs": [],
      "name": "claimInsurance",
      "outputs": [],
      "stateMutability": "nonpayable",
      "type": "function"
    },
    {
      "inputs": [
        {
          "internalType": "address",
          "name": "",
          "type": "address"
        }
      ],
      "name": "policies",
      "outputs": [
        {
          "internalType": "uint256",
          "name": "amountInsured",
          "type": "uint256"
        },
        {
          "internalType": "uint256",
          "name": "premium",
          "type": "uint256"
        },
        {
          "internalType": "bool",
          "name": "isActive",
          "type": "bool"
        }
      ],
      "stateMutability": "view",
      "type": "function"
    },
    {
      "inputs": [
        {
          "internalType": "uint256",
          "name": "amount",
          "type": "uint256"
        }
      ],
      "name": "purchaseInsurance",
      "outputs": [],
      "stateMutability": "payable",
      "type": "function"
    },
    {
      "stateMutability": "payable",
      "type": "receive"
    }
  ],
  "bytecode": "0x608060405234801561001057600080fd5b5061081a806100206000396000f3fe6080604052600436106100435760003560e01c806320e986981461004c57806348f54f031461008b578063a75ac608146100c8578063e64e4588146100df5761004a565b3661004a57005b005b34801561005857600080fd5b50610073600480360381019061006e9190610420565b6100fb565b60405161008293929190610481565b60405180910390f35b34801561009757600080fd5b506100b260048036038101906100ad91906104e4565b610132565b6040516100bf9190610511565b60405180910390f35b3480156100d457600080fd5b506100dd610154565b005b6100f960048036038101906100f491906104e4565b610299565b005b60006020528060005260406000206000915090508060000154908060010154908060020160009054906101000a900460ff16905083565b60006064600183610143919061055b565b61014d91906105cc565b9050919050565b60008060003373ffffffffffffffffffffffffffffffffffffffff1673ffffffffffffffffffffffffffffffffffffffff16815260200190815260200160002090508060020160009054906101000a900460ff166101e7576040517f08c379a00000000000000000000000000000000000000000000000000000000081526004016101de9061065a565b60405180910390fd5b600081600001541161022e576040517f08c379a0000000000000000000000000000000000000000000000000000000008152600401610225906106c6565b60405180910390fd5b3373ffffffffffffffffffffffffffffffffffffffff166108fc82600001549081150290604051600060405180830381858888f19350505050158015610278573d6000803e3d6000fd5b5060008160020160006101000a81548160ff02191690831515021790555050565b6102a281610132565b3410156102e4576040517f08c379a00000000000000000000000000000000000000000000000000000000081526004016102db90610732565b60405180910390fd5b60008111610327576040517f08c379a000000000000000000000000000000000000000000000000000000000815260040161031e906107c4565b60405180910390fd5b6040518060600160405280828152602001348152602001600115158152506000803373ffffffffffffffffffffffffffffffffffffffff1673ffffffffffffffffffffffffffffffffffffffff168152602001908152602001600020600082015181600001556020820151816001015560408201518160020160006101000a81548160ff02191690831515021790555090505050565b600080fd5b600073ffffffffffffffffffffffffffffffffffffffff82169050919050565b60006103ed826103c2565b9050919050565b6103fd816103e2565b811461040857600080fd5b50565b60008135905061041a816103f4565b92915050565b600060208284031215610436576104356103bd565b5b60006104448482850161040b565b91505092915050565b6000819050919050565b6104608161044d565b82525050565b60008115159050919050565b61047b81610466565b82525050565b60006060820190506104966000830186610457565b6104a36020830185610457565b6104b06040830184610472565b949350505050565b6104c18161044d565b81146104cc57600080fd5b50565b6000813590506104de816104b8565b92915050565b6000602082840312156104fa576104f96103bd565b5b6000610508848285016104cf565b91505092915050565b60006020820190506105266000830184610457565b92915050565b7f4e487b7100000000000000000000000000000000000000000000000000000000600052601160045260246000fd5b60006105668261044d565b91506105718361044d565b925082820261057f8161044d565b915082820484148315176105965761059561052c565b5b5092915050565b7f4e487b7100000000000000000000000000000000000000000000000000000000600052601260045260246000fd5b60006105d78261044d565b91506105e28361044d565b9250826105f2576105f161059d565b5b828204905092915050565b600082825260208201905092915050565b7f4e6f2061637469766520696e737572616e636520706f6c696379000000000000600082015250565b6000610644601a836105fd565b915061064f8261060e565b602082019050919050565b6000602082019050818103600083015261067381610637565b9050919050565b7f4e6f20616d6f756e7420696e7375726564000000000000000000000000000000600082015250565b60006106b06011836105fd565b91506106bb8261067a565b602082019050919050565b600060208201905081810360008301526106df816106a3565b9050919050565b7f496e73756666696369656e74207072656d69756d000000000000000000000000600082015250565b600061071c6014836105fd565b9150610727826106e6565b602082019050919050565b6000602082019050818103600083015261074b8161070f565b9050919050565b7f496e737572656420616d6f756e74206d7573742062652067726561746572207460008201527f68616e2030000000000000000000000000000000000000000000000000000000602082015250565b60006107ae6025836105fd565b91506107b982610752565b604082019050919050565b600060208201905081810360008301526107dd816107a1565b905091905056fea264697066735822122090ba1f8238b1d2af119909e36562d00885131c5ac57ce4e9f7001646b34aa73b64736f6c63430008180033",
  "linkReferences": {},
  "deployedLinkReferences": {}
}