{
  "_format": "hh-sol-artifact-1",
  "contractName": "Lending",
  "sourceName": "contracts/Lending.sol",
  "abi": [
    {
      "stateMutability": "payable",
      "type": "fallback"
    },
    {
      "inputs": [
        {
          "internalType": "address",
          "name": "borrower",
          "type": "address"
        }
      ],
      "name": "calculateInterest",
      "outputs": [
        {
          "internalType": "uint256",
          "name": "",
          "type": "uint256"
        }
      ],
      "stateMutability": "view",
      "type": "function"
    },
    {
      "inputs": [
        {
          "internalType": "address",
          "name": "",
          "type": "address"
        }
      ],
      "name": "loans",
      "outputs": [
        {
          "internalType": "uint256",
          "name": "amount",
          "type": "uint256"
        },
        {
          "internalType": "uint256",
          "name": "interestRate",
          "type": "uint256"
        },
        {
          "internalType": "uint256",
          "name": "dueDate",
          "type": "uint256"
        },
        {
          "internalType": "bool",
          "name": "repaid",
          "type": "bool"
        }
      ],
      "stateMutability": "view",
      "type": "function"
    },
    {
      "inputs": [],
      "name": "repayLoan",
      "outputs": [],
      "stateMutability": "payable",
      "type": "function"
    },
    {
      "inputs": [
        {
          "internalType": "uint256",
          "name": "amount",
          "type": "uint256"
        }
      ],
      "name": "requestLoan",
      "outputs": [],
      "stateMutability": "nonpayable",
      "type": "function"
    },
    {
      "stateMutability": "payable",
      "type": "receive"
    }
  ],
  "bytecode": "0x608060405234801561001057600080fd5b50610b1c806100206000396000f3fe6080604052600436106100435760003560e01c806373b4086b1461004c5780638d5d34291461008c578063e11932cf146100b5578063f966ade7146100f25761004a565b3661004a57005b005b34801561005857600080fd5b50610073600480360381019061006e91906105d4565b6100fc565b6040516100839493929190610635565b60405180910390f35b34801561009857600080fd5b506100b360048036038101906100ae91906106a6565b610139565b005b3480156100c157600080fd5b506100dc60048036038101906100d791906105d4565b6102b6565b6040516100e991906106d3565b60405180910390f35b6100fa6103b5565b005b60006020528060005260406000206000915090508060000154908060010154908060020154908060030160009054906101000a900460ff16905084565b60008060003373ffffffffffffffffffffffffffffffffffffffff1673ffffffffffffffffffffffffffffffffffffffff16815260200190815260200160002060000154146101bd576040517f08c379a00000000000000000000000000000000000000000000000000000000081526004016101b49061074b565b60405180910390fd5b60008111610200576040517f08c379a00000000000000000000000000000000000000000000000000000000081526004016101f7906107dd565b60405180910390fd5b60405180608001604052808281526020016101f4815260200162278d0042610228919061082c565b8152602001600015158152506000803373ffffffffffffffffffffffffffffffffffffffff1673ffffffffffffffffffffffffffffffffffffffff16815260200190815260200160002060008201518160000155602082015181600101556040820151816002015560608201518160030160006101000a81548160ff02191690831515021790555090505050565b6000806000808473ffffffffffffffffffffffffffffffffffffffff1673ffffffffffffffffffffffffffffffffffffffff16815260200190815260200160002090506000816000015411610340576040517f08c379a0000000000000000000000000000000000000000000000000000000008152600401610337906108ac565b60405180910390fd5b6000816002015442116103705762278d00826002015461036091906108cc565b4261036b91906108cc565b610375565b62278d005b9050600064496cebb80082846001015485600001546103949190610900565b61039e9190610900565b6103a89190610971565b9050809350505050919050565b60008060003373ffffffffffffffffffffffffffffffffffffffff1673ffffffffffffffffffffffffffffffffffffffff16815260200190815260200160002090508060030160009054906101000a900460ff1615610449576040517f08c379a0000000000000000000000000000000000000000000000000000000008152600401610440906109ee565b60405180910390fd5b6000816000015411610490576040517f08c379a000000000000000000000000000000000000000000000000000000000815260040161048790610a5a565b60405180910390fd5b600061049b336102b6565b905060008183600001546104af919061082c565b9050803410156104f4576040517f08c379a00000000000000000000000000000000000000000000000000000000081526004016104eb90610ac6565b60405180910390fd5b60018360030160006101000a81548160ff0219169083151502179055508034111561056c573373ffffffffffffffffffffffffffffffffffffffff166108fc823461053f91906108cc565b9081150290604051600060405180830381858888f1935050505015801561056a573d6000803e3d6000fd5b505b505050565b600080fd5b600073ffffffffffffffffffffffffffffffffffffffff82169050919050565b60006105a182610576565b9050919050565b6105b181610596565b81146105bc57600080fd5b50565b6000813590506105ce816105a8565b92915050565b6000602082840312156105ea576105e9610571565b5b60006105f8848285016105bf565b91505092915050565b6000819050919050565b61061481610601565b82525050565b60008115159050919050565b61062f8161061a565b82525050565b600060808201905061064a600083018761060b565b610657602083018661060b565b610664604083018561060b565b6106716060830184610626565b95945050505050565b61068381610601565b811461068e57600080fd5b50565b6000813590506106a08161067a565b92915050565b6000602082840312156106bc576106bb610571565b5b60006106ca84828501610691565b91505092915050565b60006020820190506106e8600083018461060b565b92915050565b600082825260208201905092915050565b7f4c6f616e20616c72656164792065786973747300000000000000000000000000600082015250565b60006107356013836106ee565b9150610740826106ff565b602082019050919050565b6000602082019050818103600083015261076481610728565b9050919050565b7f4c6f616e20616d6f756e74206d7573742062652067726561746572207468616e60008201527f2030000000000000000000000000000000000000000000000000000000000000602082015250565b60006107c76022836106ee565b91506107d28261076b565b604082019050919050565b600060208201905081810360008301526107f6816107ba565b9050919050565b7f4e487b7100000000000000000000000000000000000000000000000000000000600052601160045260246000fd5b600061083782610601565b915061084283610601565b925082820190508082111561085a576108596107fd565b5b92915050565b7f4e6f206c6f616e20666f756e6400000000000000000000000000000000000000600082015250565b6000610896600d836106ee565b91506108a182610860565b602082019050919050565b600060208201905081810360008301526108c581610889565b9050919050565b60006108d782610601565b91506108e283610601565b92508282039050818111156108fa576108f96107fd565b5b92915050565b600061090b82610601565b915061091683610601565b925082820261092481610601565b9150828204841483151761093b5761093a6107fd565b5b5092915050565b7f4e487b7100000000000000000000000000000000000000000000000000000000600052601260045260246000fd5b600061097c82610601565b915061098783610601565b92508261099757610996610942565b5b828204905092915050565b7f4c6f616e20616c72656164792072657061696400000000000000000000000000600082015250565b60006109d86013836106ee565b91506109e3826109a2565b602082019050919050565b60006020820190508181036000830152610a07816109cb565b9050919050565b7f4e6f20616374697665206c6f616e20746f207265706179000000000000000000600082015250565b6000610a446017836106ee565b9150610a4f82610a0e565b602082019050919050565b60006020820190508181036000830152610a7381610a37565b9050919050565b7f496e73756666696369656e742072657061796d656e7420616d6f756e74000000600082015250565b6000610ab0601d836106ee565b9150610abb82610a7a565b602082019050919050565b60006020820190508181036000830152610adf81610aa3565b905091905056fea26469706673582212203d350dced4fb02a41d145d112c56cad2cfb73ab6a958a00b2094e2d7aa9c588664736f6c63430008180033",
  "linkReferences": {},
  "deployedLinkReferences": {}
}