{
  "_format": "hh-sol-artifact-1",
  "contractName": "RoperzBank",
  "sourceName": "contracts/RoperzBank.sol",
  "abi": [
    {
      "inputs": [],
      "name": "createAccount",
      "outputs": [],
      "stateMutability": "nonpayable",
      "type": "function"
    },
    {
      "inputs": [],
      "name": "deposit",
      "outputs": [],
      "stateMutability": "payable",
      "type": "function"
    },
    {
      "inputs": [],
      "name": "getBalance",
      "outputs": [
        {
          "internalType": "uint256",
          "name": "",
          "type": "uint256"
        }
      ],
      "stateMutability": "view",
      "type": "function"
    },
    {
      "inputs": [
        {
          "internalType": "address",
          "name": "to",
          "type": "address"
        },
        {
          "internalType": "uint256",
          "name": "amount",
          "type": "uint256"
        }
      ],
      "name": "transfer",
      "outputs": [],
      "stateMutability": "nonpayable",
      "type": "function"
    },
    {
      "inputs": [
        {
          "internalType": "uint256",
          "name": "amount",
          "type": "uint256"
        }
      ],
      "name": "withdraw",
      "outputs": [],
      "stateMutability": "nonpayable",
      "type": "function"
    }
  ],
  "bytecode": "0x608060405234801561001057600080fd5b50610d9b806100206000396000f3fe60806040526004361061004a5760003560e01c806312065fe01461004f5780632e1a7d4d1461007a5780639dca362f146100a3578063a9059cbb146100ba578063d0e30db0146100e3575b600080fd5b34801561005b57600080fd5b506100646100ed565b6040516100719190610954565b60405180910390f35b34801561008657600080fd5b506100a1600480360381019061009c91906109a0565b610228565b005b3480156100af57600080fd5b506100b86103e7565b005b3480156100c657600080fd5b506100e160048036038101906100dc9190610a2b565b61050c565b005b6100eb610774565b005b60008060003373ffffffffffffffffffffffffffffffffffffffff1673ffffffffffffffffffffffffffffffffffffffff16815260200190815260200160002060000160009054906101000a900460ff1661017d576040517f08c379a000000000000000000000000000000000000000000000000000000000815260040161017490610ac8565b60405180910390fd5b60008060003373ffffffffffffffffffffffffffffffffffffffff1673ffffffffffffffffffffffffffffffffffffffff168152602001908152602001600020905060008160020154426101d19190610b17565b905060006127106301e133806101e79190610b4b565b826101f485600101546101fa9190610b4b565b6102049190610b4b565b61020e9190610bbc565b836001015461021d9190610bed565b905080935050505090565b6000803373ffffffffffffffffffffffffffffffffffffffff1673ffffffffffffffffffffffffffffffffffffffff16815260200190815260200160002060000160009054906101000a900460ff166102b6576040517f08c379a00000000000000000000000000000000000000000000000000000000081526004016102ad90610ac8565b60405180910390fd5b80806000803373ffffffffffffffffffffffffffffffffffffffff1673ffffffffffffffffffffffffffffffffffffffff16815260200190815260200160002060010154101561033b576040517f08c379a000000000000000000000000000000000000000000000000000000000815260040161033290610c6d565b60405180910390fd5b61034433610865565b816000803373ffffffffffffffffffffffffffffffffffffffff1673ffffffffffffffffffffffffffffffffffffffff16815260200190815260200160002060010160008282546103959190610b17565b925050819055503373ffffffffffffffffffffffffffffffffffffffff166108fc839081150290604051600060405180830381858888f193505050501580156103e2573d6000803e3d6000fd5b505050565b6000803373ffffffffffffffffffffffffffffffffffffffff1673ffffffffffffffffffffffffffffffffffffffff16815260200190815260200160002060000160009054906101000a900460ff1615610476576040517f08c379a000000000000000000000000000000000000000000000000000000000815260040161046d90610cd9565b60405180910390fd5b604051806060016040528060011515815260200160008152602001428152506000803373ffffffffffffffffffffffffffffffffffffffff1673ffffffffffffffffffffffffffffffffffffffff16815260200190815260200160002060008201518160000160006101000a81548160ff0219169083151502179055506020820151816001015560408201518160020155905050565b6000803373ffffffffffffffffffffffffffffffffffffffff1673ffffffffffffffffffffffffffffffffffffffff16815260200190815260200160002060000160009054906101000a900460ff1661059a576040517f08c379a000000000000000000000000000000000000000000000000000000000815260040161059190610ac8565b60405180910390fd5b80806000803373ffffffffffffffffffffffffffffffffffffffff1673ffffffffffffffffffffffffffffffffffffffff16815260200190815260200160002060010154101561061f576040517f08c379a000000000000000000000000000000000000000000000000000000000815260040161061690610c6d565b60405180910390fd5b6000808473ffffffffffffffffffffffffffffffffffffffff1673ffffffffffffffffffffffffffffffffffffffff16815260200190815260200160002060000160009054906101000a900460ff166106ad576040517f08c379a00000000000000000000000000000000000000000000000000000000081526004016106a490610d45565b60405180910390fd5b6106b633610865565b6106bf83610865565b816000803373ffffffffffffffffffffffffffffffffffffffff1673ffffffffffffffffffffffffffffffffffffffff16815260200190815260200160002060010160008282546107109190610b17565b92505081905550816000808573ffffffffffffffffffffffffffffffffffffffff1673ffffffffffffffffffffffffffffffffffffffff16815260200190815260200160002060010160008282546107689190610bed565b92505081905550505050565b6000803373ffffffffffffffffffffffffffffffffffffffff1673ffffffffffffffffffffffffffffffffffffffff16815260200190815260200160002060000160009054906101000a900460ff16610802576040517f08c379a00000000000000000000000000000000000000000000000000000000081526004016107f990610ac8565b60405180910390fd5b61080b33610865565b346000803373ffffffffffffffffffffffffffffffffffffffff1673ffffffffffffffffffffffffffffffffffffffff168152602001908152602001600020600101600082825461085c9190610bed565b92505081905550565b60008060008373ffffffffffffffffffffffffffffffffffffffff1673ffffffffffffffffffffffffffffffffffffffff168152602001908152602001600020905080600201544211156109375760008160020154426108c59190610b17565b90506301e1338081106109355760006127106301e133806108e69190610b4b565b826101f485600101546108f99190610b4b565b6109039190610b4b565b61090d9190610bbc565b9050808360010160008282546109239190610bed565b92505081905550428360020181905550505b505b5050565b6000819050919050565b61094e8161093b565b82525050565b60006020820190506109696000830184610945565b92915050565b600080fd5b61097d8161093b565b811461098857600080fd5b50565b60008135905061099a81610974565b92915050565b6000602082840312156109b6576109b561096f565b5b60006109c48482850161098b565b91505092915050565b600073ffffffffffffffffffffffffffffffffffffffff82169050919050565b60006109f8826109cd565b9050919050565b610a08816109ed565b8114610a1357600080fd5b50565b600081359050610a25816109ff565b92915050565b60008060408385031215610a4257610a4161096f565b5b6000610a5085828601610a16565b9250506020610a618582860161098b565b9150509250929050565b600082825260208201905092915050565b7f4163636f756e7420646f6573206e6f7420657869737400000000000000000000600082015250565b6000610ab2601683610a6b565b9150610abd82610a7c565b602082019050919050565b60006020820190508181036000830152610ae181610aa5565b9050919050565b7f4e487b7100000000000000000000000000000000000000000000000000000000600052601160045260246000fd5b6000610b228261093b565b9150610b2d8361093b565b9250828203905081811115610b4557610b44610ae8565b5b92915050565b6000610b568261093b565b9150610b618361093b565b9250828202610b6f8161093b565b91508282048414831517610b8657610b85610ae8565b5b5092915050565b7f4e487b7100000000000000000000000000000000000000000000000000000000600052601260045260246000fd5b6000610bc78261093b565b9150610bd28361093b565b925082610be257610be1610b8d565b5b828204905092915050565b6000610bf88261093b565b9150610c038361093b565b9250828201905080821115610c1b57610c1a610ae8565b5b92915050565b7f496e73756666696369656e742062616c616e6365000000000000000000000000600082015250565b6000610c57601483610a6b565b9150610c6282610c21565b602082019050919050565b60006020820190508181036000830152610c8681610c4a565b9050919050565b7f4163636f756e7420616c72656164792065786973747300000000000000000000600082015250565b6000610cc3601683610a6b565b9150610cce82610c8d565b602082019050919050565b60006020820190508181036000830152610cf281610cb6565b9050919050565b7f526563697069656e74206163636f756e7420646f6573206e6f74206578697374600082015250565b6000610d2f602083610a6b565b9150610d3a82610cf9565b602082019050919050565b60006020820190508181036000830152610d5e81610d22565b905091905056fea26469706673582212204931693ab756be426d0120162352863084f41656648420066a8845ffb3a6c84964736f6c63430008180033",
  "linkReferences": {},
  "deployedLinkReferences": {}
}